:020000040800F2
:10000000F860002031030008F72700081D1F0008D2
:10001000F5270008690D0008794D00080000000070
:10002000000000000000000000000000790200084D
:10003000AD12000800000000CD02000825390008BC
:100040004B0300084B0300084B0300084B03000858
:100050004B0300084B0300084B0300084B03000848
:100060004B0300084B0300084B0300084B03000838
:100070004B0300084B0300084B0300084B03000828
:100080004B0300084B0300084B0300084B03000818
:10009000390F00084B0300084B0300084B0300080E
:1000A0004B0300084B0300084B0300084B030008F8
:1000B000093D0008193D00082D3D00084B030008CC
:1000C0004B0300084B0300084B0300084B030008D8
:1000D0004B030008B1470008D5480008094B000849
:1000E0004B0300084B0300084B030008553D000874
:1000F000094100084B030008693D00084B03000854
:100100004B0300084B030008413D00084B03000867
:100110004B030008B94600084B0300084B030008D6
:100120004B0300084B0300084B0300084B03000877
:100130004B0300084B0300084B0300084B03000867
:100140004B0300084B0300084B0300084B03000857
:100150004B0300084B0300084B0300084B03000847
:100160004B0300084B0300084B0300084B03000837
:100170004B0300084B0300084B0300084B03000827
:100180004B0300084B03000800F002F800F064F88D
:100190000AA090E8000C82448344AAF10107DA45E2
:1001A00001D100F059F8AFF2090EBAE80F0013F0D0
:1001B000010F18BFFB1A43F0010318470CBC0000E5
:1001C0002CBC00000A444FF0000C10F8013B13F067
:1001D000070408BF10F8014B1D1108BF10F8015BA0
:1001E000641E05D010F8016B641E01F8016BF9D193
:1001F00013F0080F1EBF10F8014BAD1C0C1B09D1EA
:100200006D1E58BF01F801CBFAD505E014F8016B5B
:1002100001F8016B6D1EF9D59142D6D370470000ED
:100220000023002400250026103A28BF78C1FBD8FF
:10023000520728BF30C148BF0B607047642900F0E7
:100240000381732900F03E82002070471FB50AF039
:10025000BEF91FBD10B510BD00F0B0FA1146FFF792
:10026000F5FF06F00FFD00F0CEFA03B4FFF7F2FF42
:1002700003BC06F0CDFA00002A4B19680868B0E804
:10028000F04F80F30988BFF36F8F4FF0000080F3C9
:10029000118870470000000006480068006880F37D
:1002A000088862B661B6BFF34F8FBFF36F8F00DF70
:1002B00000BF00BF08ED00E0DFF80C00016841F46A
:1002C00070010160704700BF88ED00E0EFF3098026
:1002D000BFF36F8F134B1A681EF0100F08BF20ED8D
:1002E000108A20E9F04F106008B44FF0500080F3FE
:1002F0001188BFF34F8FBFF36F8F08F0E9FC4FF009
:10030000000080F3118808BC19680868B0E8F04F55
:100310001EF0100F08BFB0EC108A80F30988BFF3FD
:100320006F8F7047D0000020EFF30580704700000A
:100330000948804709480047FEE7FEE7FEE7FEE779
:10034000FEE7FEE7FEE7FEE7FEE7FEE704480549B5
:10035000054A064B7047000039390008890100083A
:10036000F85A0020F8600020F85C0020F85C0020BB
:10037000704700000FB4044910B503AA029800F0BA
:10038000A5F910BC5DF814FBBC0000202DE9F0417C
:100390000E460446002020622046E168884730B3BC
:1003A000252805D0D4E901219047206A401CF2E7B6
:1003B000E168204600278847050018D0A5F14100D4
:1003C000192802D820354FF40067324629462046C6
:1003D0002760FFF733FF40B1012804D0F61D26F057
:1003E00007060836D8E7361DD6E72846DAE7206A3A
:1003F000BDE8F08170B50C460546012A05D0287885
:10040000800600D5EA69002302E0012305E05B1CB9
:10041000934202D2E05C0028F9D1A869E618C01A1C
:10042000A861286A184428622846AFF3008004E0D7
:10043000D5E9012114F8010B9047B442F8D32846BE
:10044000AFF3008070BD00002DE9F04106460024A6
:1004500010687529314616A510D0AFF3008000282A
:1004600002DA404213A507E031688A0701D512A5D8
:1004700002E0490704D511A5012401E0AFF3008093
:1004800000210A2206F1240709E0B0FBF2FCB0FBD0
:10049000F2F302FB1C00303078541846491C002847
:1004A000F3D123462A463046BDE8F04100F086B835
:1004B000000000002D0000002B00000020000000C4
:1004C000032A40F2308010F0030C00F0158011F880
:1004D000013BBCF1020F624498BF11F801CB00F858
:1004E000013B38BF11F8013BA2F1040298BF00F8AC
:1004F00001CB38BF00F8013B11F0030300F0F88096
:10050000083AC0F0088051F8043B083A51F804CB8F
:10051000A0E80810F5E7121D5CBF51F8043B40F855
:10052000043BAFF30080D20724BF11F8013B11F860
:1005300001CB48BF11F8012B24BF00F8013B00F8A4
:1005400001CB48BF00F8012B704702F0FF0343EADC
:10055000032242EA024200F002B84FF000020429EE
:10056000C0F0128010F0030C00F0F680CCF1040C07
:10057000BCF1020F18BF00F8012BA8BF20F8022B16
:10058000A1EB0C0100F0E8B85FEAC17C24BF00F8E1
:10059000012B00F8012B48BF00F8012B7047704772
:1005A00070477047704710B500F0FCF8006810BD48
:1005B00010B5044600F0F6F8046010BD2DE9F047D0
:1005C0000D4699469246044600F1240801688806C3
:1005D00004D5E06921F01001216000E00120A8426B
:1005E00001DD471B00E00027A1697A1902EB090031
:1005F000081AA0612078C00602D42046AFF300801C
:10060000002608E0D4E901211AF806009047206A84
:10061000401C761C20624E45F4DB2078C0060AD5CB
:100620002046AFF3008006E0D4E901213020904756
:10063000206A401C2062381EA7F10107F4DC07E0A5
:10064000D4E9012118F805009047206A401C206277
:10065000281EA5F10105F3DC2046AFF300802078C9
:10066000000602D50220BDE8F0870120FBE700006C
:1006700001694A1C02610878704700B58FB0CDE966
:1006800001310021059105497944CDE90310114656
:100690006846FFF77BFE0FB000BD0000E5FFFFFFDF
:1006A00010B5436913B1AFF3008001E0FFF7A2FE7C
:1006B000012010BD127800F124010A7000224A7056
:1006C0000122EDE711684FF0FF32E9E7074B70B503
:1006D0000D467B44FFF7D1FF0446284600F066F83C
:1006E00010B14FF0FF3070BD204670BD5B6500005B
:1006F00010B5203AC0F00B80B1E81850203AA0E8BD
:100700001850B1E81850A0E81850BFF4F5AF5FEAF0
:10071000027C24BFB1E81850A0E8185044BF18C9A3
:1007200018C0BDE810405FEA827C24BF51F8043B4A
:1007300040F8043B08BF7047D20728BF31F8023B9E
:1007400048BF11F8012B28BF20F8023B48BF00F832
:10075000012B70474FF0000200B5134694469646B1
:10076000203922BFA0E80C50A0E80C50B1F12001C4
:10077000BFF4F7AF090728BFA0E80C5048BF0CC072
:100780005DF804EB890028BF40F8042B08BF7047D0
:1007900048BF20F8022B11F0804F18BF00F8012B42
:1007A0007047000000487047985A0020007B00F016
:1007B0008000704700487047985A00207546FFF740
:1007C000F9FFAE4605006946534620F0070085460E
:1007D00018B020B5FFF7BAFDBDE820404FF0000685
:1007E0004FF000074FF000084FF0000B21F0070119
:1007F000AC46ACE8C009ACE8C009ACE8C009ACE85C
:10080000C0098D46704710B50446AFF300802046FE
:10081000BDE81040FFF729BD0029816802D041F0F2
:10082000010101E021F0010181607047084B10B522
:10083000D3F8042307490A40D0E900142143D0E942
:100840000240044321431143C3F8041310BD0000C8
:1008500000200140E030FCFFC06C80B270470246CF
:10086000002012680A4200D00120704730B542686B
:100870000F4B0C791A400B6842EA04221343436081
:1008800082680C4B4D791A40D1E9034323438C68AD
:1008900044EA4504234313438360C26A097D22F47A
:1008A0007002491EC9B242EA0151C16230BD000066
:1008B000FFFEFFFCFDF7FFC070B5072609290AD926
:1008C000C568A1F10A0404EB4404A640B543A34063
:1008D0001D43C56007E0056901EB4104A640B5432F
:1008E000A3401D4305611F23072A09D2446B521EF2
:1008F00002EB820293409C4391400C43446370BDE1
:100900000D2A09D2046BD21F02EB820293409C4352
:1009100091400C43046370BDC46A0D3A02EB82023D
:1009200093409C4391400C43C46270BD816841F088
:10093000804181607047000038B535489FED351A19
:100940009FED350AD0ED000A10EE810AF3EE0B0A96
:1009500080EE201ABDEEC10A10EE103A642B00DDC5
:1009600064232E48DFED2E0A90ED000A20EE200AC7
:10097000BDEEC00A10EE100A002800DA40422949F4
:1009800091ED000A20EE200ABDEEC00A10EE101A0A
:10099000002900DA4942244C2278A2B100222270B8
:1009A000224C2578012D10D0214DB5F904403AB3E1
:1009B000B5F90220B5F9001001B02346BDE830407A
:1009C0001CA0FFF7D7BC0122E9E71E4890ED000A02
:1009D0001D48BDEEC00A10EE103A90ED000A1B480B
:1009E000BDEEC00A10EE102A90ED000A18A0BDEE70
:1009F000C00A10EE101AFFF7BDFC0020207038BDB1
:100A0000CAB2C1B216A00094FFF7B4FC38BD000012
:100A10001800002000007A4400401C46205A0020A4
:100A20000000C842345A0020EC010020950100204B
:100A3000080200207B4225643A25643A25647D241F
:100A400000000000500100204C010020480100205F
:100A50007B4325643A25643A25647D240000000028
:100A60007B4125643A25643A25643A25647D240057
:100A700030B58DB00121022002F096FB01210D025C
:100A8000284602F0A9FB032002218DF82C000A91D0
:100A900000248DF82F400AA9134801F005F8012120
:100AA000284602F0A5FB0021284602F0A1FB06948F
:100AB00068020994CDE9070406A8FFF7B7FE8DF890
:100AC000044000948DF80540029404940120074CE2
:100AD0008DF8140069462046FFF7C8FE0121204624
:100AE000FFF79AFE0DB030BD000402400020014027
:100AF00070B58CB00121022002F056FB01214E029C
:100B0000304602F069FB03208DF82C0001250024FB
:100B10000A958DF82F400AA9134800F0C5FF01215E
:100B2000304602F065FB0021304602F061FB06947E
:100B300068040994CDE9070406A8FFF777FE8DF84D
:100B4000044000948DF8054002940494074C8DF8FD
:100B5000145069462046FFF789FE01212046FFF721
:100B60005BFE0CB070BD000000040240002101409B
:100B70001CB506F069F8DFF8B4A1DFF8B4B16D4C2C
:100B80006D4D6E4EDFF8B88140F6B8390027019000
:100B90000A2101A807F0CAFEDAF80400484502DA83
:100BA000401CCAF8040001F0E1F8DBF8000000285E
:100BB000EED16448007810B100F0F4FF16E062480E
:100BC000007810B102F096FB10E06048007810B198
:100BD00002F016FA0AE05E4890ED001A5D48D0ED8A
:100BE000000A5D4890ED000A00F062FB01F042FC53
:100BF0005A4890ED000ABDEEC00A10EE100A03F04C
:100C000033FD28B100231A4619461846009751E0D3
:100C1000D4ED020A94ED000A01F01EFB00EE100A6A
:100C2000B8EEC00A84ED010AD5ED020A95ED000A7E
:100C300001F050FB00EE100AB8EEC00A85ED010A83
:100C4000D6ED020A96ED000A01F082FB00EE100AD2
:100C50004346B8EEC00A86ED010AD8ED020A98EDC7
:100C6000000A01F0B3FB00EE100A44F23C10B8EEAB
:100C7000C00A83ED010A01F039FC394800780628E2
:100C800086D2DFE800F0031A34500350009793ED4A
:100C9000010ABDEEC00A10EE103A96ED010AB1EE5F
:100CA000400ABDEEC00A10EE102A95ED010AB1EE21
:100CB000400A2DE002F050FD6AE7009793ED010A2B
:100CC000BDEEC00A10EE103A96ED010AB1EE400AF0
:100CD000BDEEC00A10EE102A95ED010ABDEEC00A65
:100CE00010EE101A94ED010AB1EE400A16E01D480C
:100CF0000068009093ED010ABDEEC00A10EE103AB4
:100D000096ED010ABDEEC00A10EE102A95ED010A1B
:100D1000BDEEC00A10EE101A94ED010ABDEEC00A35
:100D200010EE100AC6E70097E4E70000AC010020CF
:100D30005C010020205A0020345A0020485A00202C
:100D40005C5A00205501002056010020540100206B
:100D5000780100207401002070010020180000209C
:100D6000450100206C010020FEE700001CB50121B8
:100D7000084602F019FA4FF48070009001208DF8B7
:100D8000040000218DF8061003218DF805108DF860
:100D900007006946014800F087FE1CBD00000240C4
:100DA0002DE9FE4F0024D8B3D1B3CAB3C3B3401E5C
:100DB000491EC7B2CEB2521E5B1E02F0FF099DB2A1
:100DC0000121082002F0F0F90121480602F0F8F9AB
:100DD00002218DF804104FF0030B4FF000088DF83E
:100DE00006808DF805B04FF0010ACDF800B08DF8FF
:100DF00007A069464D4800F057FE092200214B48E4
:100E000000F08EFE09220121484800F089FE484882
:100E1000C0F80080016841F001010160021D09E095
:100E2000FFE70120BDE8FE8F641CA4B2642C01D949
:100E30000220F7E71168C907F6D03D480168016054
:100E40000168016001680160016841F01001016002
:100E50000168016001680160354943461C31C1F8F1
:100E60000080D1F80080DDF830C048EA8C7CC1F801
:100E700000C0D1F800C04CEA07670F600F6847EA6E
:100E800006560E600F6847EA09460E600E682E434C
:100E90000E60016821F0010101604FF6F07005E07D
:100EA000641CA4B2844201D90320BBE71168C907BE
:100EB000F6D12048016841F0010101601D491C3153
:100EC0000A6822F001020A601A4A0C32146844F0DF
:100ED00001041460021D14681460164A1432146868
:100EE0001460144A40321360121D13600A6842F005
:100EF00001020A60016803600D481430016841F086
:100F00000201016014208DF808008DF809A08DF809
:100F10000AB08DF80BA002A801F06EFC012202219C
:100F2000034800F073F900207CE70000000C024049
:100F3000006400400066004010B588B002A907A810
:100F4000CDE9000106AB05AA04A9002000F070F865
:100F50000498A0F5807181394BD1294901209FED7A
:100F60002F1A087027490020304C08702649087055
:100F700026490870264908702649087026490870D5
:100F80009DF809009DF8081000EB012000B200EE6A
:100F9000100A2348F8EEC00A80EE810A80ED000AAC
:100FA0009DF80B009DF80A1000EB012000B200EE46
:100FB000900A1C48F8EEE00AC0EE811AC0ED001A53
:100FC0009DF80D009DF80C1000EB012000B200EE22
:100FD000900A1549F8EEE01A09780229C1EE810A53
:100FE00009D000EE100AB8EEC00AC0EE010AC4ED46
:100FF000000A08B010BD03F0C1FE84ED000AF8E756
:101000005701002054010020560100205501002006
:101010009001002091010020E801002000007A44A6
:10102000700100207401002045010020780100209B
:10103000F0B5224CDDE9057504EB0014D4F8B06579
:1010400016F004061670D4F8B02532D0D2080A6023
:10105000D4F8B01501F002011970D4F8B41501F0FC
:101060000F013970D4F8B8152970D4F8B815090AE9
:101070006970D4F8B815090CA970D4F8B815090E20
:10108000E970D4F8BC152971D4F8BC15090A697146
:10109000D4F8BC15090CA971D4F8BC15090EE97176
:1010A00048B1012804D10648016841F020010160DF
:1010B000F0BD520DCBE70248001FF5E7006000408D
:1010C0001064004038B500240091082322462146D0
:1010D00000F014F8054640F6FF7301E0641CA4B26A
:1010E000284600F061F8072801D09C42F6D39C42C4
:1010F00001D3012038BD002038BD0000F0B5064600
:101100002748059D0468640101D5002008E00468B3
:10111000240101D5012003E00068C0003CD5022075
:10112000204C002704EB0014C4F8807599B3F60036
:10113000D4F880753743C4F88075D4F8806546EAE2
:101140008101C4F88015D4F8801541EA4201C4F841
:101150008015D4F8842503F00F0122F00F02C4F8A3
:101160008425D4F884250A43C4F884252979D5F840
:10117000052041EA0221C4F88C152978D5F8012010
:1011800041EA0221C4F88815D4F8801541F0010124
:10119000C4F88015F0BD01E0FF20FBE77605C7E746
:1011A0000864004000600040174928B1012810D0B1
:1011B00002281BD00520704708680A6800F001006B
:1011C00002F002020243086800F0806042EA106008
:1011D000704708680A6800F0010002F0020202434A
:1011E000086800F0006042EA5060704708680A68CA
:1011F00000F0010002F002020243086800F0805093
:1012000042EA90607047000008640040002A42698A
:1012100001D00A4300E08A43426170477CB5144C18
:1012200000206D46215C2954401CC0B20828F9D327
:10123000294640F20110FFF745FF00202118097AE6
:101240002954401CC0B20828F8D369464FF4817075
:10125000FFF738FF00202118097C2954401CC0B238
:101260000828F8D3694640F20310FFF72BFF7CBD36
:101270007606002030B503460020012908D100225F
:10128000094C03E0A55C6840521CD2B29A42F9D3E3
:10129000002908D1044A323203E0545C6040491C02
:1012A000C9B29942F9D330BD7606002070470000DC
:1012B0002DE9F0472DED0E8BF0EE418AB0EE408A1D
:1012C000B0EE0CEAFD4BDFF8F883FE4E1878FE4FC7
:1012D000B8EE0CCA9FEDFDDBDFEDFECAFE4AFF4D06
:1012E000FF4CB6EE00AA08B1012810D1B0EE681A82
:1012F000B0EE480A02F06AFAFA4890ED008A90EDE2
:10130000019AD0ED028A187868B3012852D0C0B291
:1013100002287CD0032803D0042879D0052878D16E
:1013200092ED000AB0EE4E1A68EE800AB0EE480A5E
:1013300000EECA0A00EE8A8AF0EE4C0A85ED020A37
:1013400084ED028A06F08FFF85ED020A94ED020A11
:10135000B0EE4E1AF0EE4C0A06F085FF84ED020A5C
:10136000C6ED02CAB8E098ED000A92ED001A79EED7
:10137000080A30EE010A38EE491AF0EE601A48EE1B
:10138000C00A48EE801AC5ED020AB0EE602AF0EEFF
:10139000410A08EE801A48EEC00AB0EE420AC4EDD7
:1013A000020AC6ED021A87ED021AB0EE4E1AF0EEEE
:1013B0004C0A76E1DFF83083F0EE490A98ED000A36
:1013C00040EE280A20EE280A10EE100AC5ED020AA7
:1013D00009F08CF869EE0AEA41EC1B0B1EEE900A4C
:1013E00009F084F841EC1A0B18EE100A09F07EF8A7
:1013F00041EC190BB0EE4D0AF0EE6D0A04F0ECFC76
:101400009FEDBA1B51EC100B53EC112B02E069E07D
:101410002DE163E008F074FD53EC192B08F070FD2A
:1014200053EC1A2B08F078FF53EC1B2B08F0BEFA94
:1014300008F08AFAA06098ED000A20EE280A10EE63
:10144000100A09F053F841EC190B1EEE900A09F04E
:101450004DF841EC1A0B18EE100A09F047F841EC70
:10146000180BB0EE4D0AF0EE6D0A04F0B5FC9FEDDE
:10147000A11B51EC100B53EC112B08F041FD53EC68
:10148000182B08F03DFD53EC1A2B08F045FF53ECE8
:10149000192B08F08BFA08F057FAB06095ED020AA4
:1014A000B0EE4E1AF0EE4C0A06F0DDFE85ED020AB3
:1014B00094ED020AB0EE4E1AF0EE4C0A06F0D3FE9E
:1014C00084ED020A96ED020AB0EE4E1AF0EE4C0AD6
:1014D00006F0C9FE86ED020AC7ED02CABDEC0E8B0E
:1014E000BDE8F087DFED85AA92ED000A914620EE77
:1014F0000A0A10EE100A08F0F9FF41EC190B18EE79
:10150000900A08F0F3FF41EC100B04F0A5FCB0EEDC
:1015100040BAF0EE60BAD8F8000008F0E7FF53ECEC
:101520001B2B08F0FFFA53EC192B08F0F5FE08F01E
:101530000BFA02EE100A9FED721ADFED720AB0EE9E
:10154000680A06F090FEB5EEC00AF0EE408AF1EEB1
:1015500010FA16D099ED000AF0EE420A40EE4A0A5F
:1015600060EE880A80EE821AF0EE420A40EE0A0A25
:1015700020EE880AC0EE020A85ED021AC4ED020AC6
:1015800003E085ED028A84ED028A9FED5F0A28EE72
:10159000800A10EE100A08F0A9FF41EC1B0B18EEB0
:1015A000900A08F0A3FF41EC100B9FED581B03F0CD
:1015B000EBFD9FED581B51EC100B53EC112B08F079
:1015C0009FFC41EC190B18EE900A08F08FFF41ECDC
:1015D000100BB0EE4D1AF0EE6D1A03F0D5FD9FED35
:1015E0004F1B51EC100B53EC112B08F089FC53EC02
:1015F000192B08F0DBF953EC1B2B08F08DFE9FED47
:10160000491B53EC112B08F0D1F908F09DF900EEBD
:10161000100ADFED460A70EE600A9FED450A454B61
:10162000B0EE4E1A00EEAA0AF0EE4C0ABDEEC00A69
:1016300083ED000A95ED020A06F015FE85ED020A1B
:1016400094ED020AB0EE4E1AF0EE4C0A06F00BFED4
:1016500084ED020AC6ED02CAC7ED02CA40F698023E
:101660004FF44871186806F00EFE186036E792EDE8
:10167000000AD8ED000AB0EE4E1A30EE200A60EEF5
:10168000280AB0EE480A00EECA0A00EE8A8AF0EE96
:101690004C0A85ED020A84ED020A86ED028A87ED86
:1016A000028A06F0E0FD85ED020A94ED020AB0EE32
:1016B0004E1AF0EE4C0A06F0D6FD3DE04501002042
:1016C00088010020485A00205C5A002000000000D9
:1016D000000008400000000084010020205A002083
:1016E000345A0020145A00208C0100200000000011
:1016F0000000E0BF000000000000E03FD7231F44CF
:101700000AD7A33E48E1FABEE5D0E23F0000000060
:101710000000004000000000D34DF43F00000080B6
:101720009318E4BF00000000022BF93F4C37C93F7B
:101730000080BB446C01002084ED020A96ED020A91
:10174000B0EE4E1AF0EE4C0A06F08DFD86ED020A60
:1017500097ED020AB0EE4E1AF0EE4C0A06F083FD49
:1017600087ED020ABAE600001CB50121082001F04D
:101770001BFD0820009000208DF8040003208DF848
:10178000050001208DF807006946024800F08CF939
:101790001CBD0000000C0240F0B5012189B00846D4
:1017A00001F00EFD0121032001F0FEFC03258DF860
:1017B000055002264FF400408DF8046001242B4FA1
:1017C00000908DF806408DF807406946384600F0D5
:1017D0006BF98DF805508DF804608DF806408DF892
:1017E00007400820224C00906946204600F05CF932
:1017F00001220F21384600F093F9012203212046EF
:1018000000F08EF902A802F025FF00244FF6FF70C9
:10181000ADF8084003907507ADF81040ADF80A40E8
:1018200002A9284602F0D8FE00231A4603212846C2
:1018300002F0F3FC05A802F073FDADF81C4005A909
:10184000284602F017FD0121284602F0CBFC0122B8
:101850001146284602F06CFD0021284602F092FE57
:101860000121284602F0C4FC09B0F0BD000002408E
:101870000004024030B589B00121022001F0A0FC33
:101880000121022001F090FC3020039003208DF80C
:10189000110002208DF8100001208DF81200224C5A
:1018A0008DF8130003A9204600F0FEF8022204215F
:1018B000204600F035F902220521204600F030F9DB
:1018C000684602F0C7FE00244FF6FF70174DADF8D2
:1018D00000400190ADF80840ADF802406946284646
:1018E00002F07AFE00231A460321284602F095FCF6
:1018F00005A802F015FDADF81C4005A9284602F028
:10190000B9FC0121284602F06DFC0122114628464F
:1019100002F00EFD0021284602F034FE0121284687
:1019200002F066FC09B030BD000402400004004033
:1019300030B589B00121042001F042FC01210220D0
:1019400001F032FCC020039003208DF8110002202A
:101950008DF8100001208DF81200224C8DF8130034
:1019600003A9204600F0A0F802220621204600F03C
:10197000D7F802220721204600F0D2F8684602F08C
:1019800069FE00244FF6FF70174DADF8004001903E
:10199000ADF80840ADF802406946284602F01CFE4A
:1019A00000231A460321284602F037FC05A802F05E
:1019B000B7FCADF81C4005A9284602F05BFC0121EC
:1019C000284602F00FFC01221146284602F0B0FC26
:1019D0000021284602F0D6FD0121284602F008FC2D
:1019E00009B030BD000402400008004030B589B0A5
:1019F0000121082001F0E4FB0121084601F0D4FB9D
:101A00000320039002208DF811008DF810000120B2
:101A10008DF81200224C8DF8130003A9204600F027
:101A200043F802220021204600F07AF80222012128
:101A3000204600F075F8684602F00CFE00244FF6D0
:101A4000FF70184DADF800400190ADF80840ADF8BA
:101A500002406946284602F0BFFD00231A460321D2
:101A6000284602F0DAFB05A802F05AFCADF81C404B
:101A700005A9284602F0FEFB0121284602F0B2FB30
:101A800001221146284602F053FC0021284602F0AC
:101A900079FD0121284602F0ABFB09B030BD000002
:101AA00000000240000C0040F0B5002201274FF07A
:101AB000030C0B6807FA02F52B40AB422CD10668E9
:101AC00053000CFA03F4A64306600E79D0F800E048
:101AD0009E4046EA0E0606600E79012E01D0022EC7
:101AE00012D18668A64386604E79D0F808E09E4001
:101AF00046EA0E0686604668AE43466045688E79C3
:101B00009640B6B235434560C568A543C560CC79FB
:101B10009C40C3681C43C460521C102AC9D3F0BD4A
:101B20004B07DB0E9A40C90810B500EB8100016A33
:101B30000F249C40A1430162016A1143016210BD60
:101B40000183704710B50A4C014607230122204645
:101B5000FEF7B2FE2046FEF7E9FE02212046FEF720
:101B60007EFE0028F9D02046BDE81040FEF774BE86
:101B70000020014010B50A4C0146072301222046EF
:101B8000FEF79AFE2046FEF7D1FE02212046FEF720
:101B900066FE0028F9D02046BDE81040FEF75CBE86
:101BA00000210140F0B464486449027864480E782A
:101BB0000578644804789FED641A644BDFED642A6D
:101BC000DFED641A644F9FED652A654897ED000AC2
:101BD0006449F1EE400A52B1012A08D0092C66D2BC
:101BE000DFE804F0654346494E5156596200092C1E
:101BF00024D2DFE804F02305080B1013181B200083
:101C000080ED000A0CE080ED000A01E080ED001A92
:101C1000C3ED000A53E0C0ED000AF9E7C0ED000A89
:101C200083ED001A4BE0C0ED000A01E080ED001AE0
:101C300083ED000A43E080ED000AF9E780ED001A29
:101C400083ED001A012E04D0012D07D081ED001A7A
:101C500035E0C0EE220A60EE820A03E0C0EE220AFE
:101C600060EEA10AC1ED000A29E080ED000A0CE057
:101C700080ED000A01E080ED001AC1ED001A0EE0CF
:101C8000C0ED000AF9E7C0ED000A81ED001A06E098
:101C9000C0ED000A01E080ED001A81ED002A012E5E
:101CA00008D0012D09D00AE080ED000AF5E780EDAB
:101CB000001AEAE781ED002A01E0C1ED001A022ACC
:101CC00006D0032A11D0052A0FD0042A0DD01FE018
:101CD00091ED000AF0EE000A20EE200AF2EE020A70
:101CE00080EE201A81ED001A12E0D0ED000AF5EE28
:101CF000C00AF1EE10FAD1ED000A03D2F1EE600A4B
:101D0000C1ED000A20EE800AC0EE220AC1ED000AF1
:101D1000D0ED000A9FED141A80EE810A80ED000AD2
:101D2000D3ED001AC1EE810AC3ED000A91ED001A4D
:101D3000F0BCFFF7BDBA0000450100209201002071
:101D400093010020580100200000000074010020D1
:101D50000000FA43DB0FC9BF48010020DB0FC93F79
:101D6000700100207801002000007A4410B50220A4
:101D70002DED048B01F09EFA394C2060032001F018
:101D800099FA6060042001F095FAA060052001F046
:101D900091FA3449E060097806291BD2DFE801F0A6
:101DA0004903505049502168494200EE101A6168B9
:101DB000F8EEC09A494200EE101AA168B8EEC09A37
:101DC000494200EE101A4042F8EEC08A00EE100AB6
:101DD000B8EEC08A9FED241A244869EE810A90ED7E
:101DE000000A234860EE801AD0ED000A214881EEF7
:101DF000A02A69EE011A61EE801A80ED002A81EEB8
:101E0000A02A68EE811A1C4828EE011A61EE801A99
:101E100021EE000A80EE201A80ED002A174881EE9C
:101E2000A02A80ED002A164880ED001ABDEC048B34
:101E300010BD94ED000AF8EEC09A94ED010ABCE7DB
:101E400094ED000A6168F8EEC09A494200EE101A5B
:101E5000B8EEC09A94ED020AF8EEC08AB6E7000028
:101E6000705A0020450100200000C8428001002077
:101E70007C010020205A0020345A0020485A0020BB
:101E80005C5A00202DE9F04100250E4607462C46FD
:101E900008E03846FFF756FE0544052004F07EFEB4
:101EA000641CE4B2B442F4D3B5FBF6F080B2BDE8F2
:101EB000F081000010B50820FFF75CFE07F0D0FFAE
:101EC0009FED0E1B53EC112B08F01AF89FED0D1B24
:101ED00053EC112B08F014F89FED0C1B53EC112B55
:101EE00008F00EF89FED0B1B53EC112B08F008F8CF
:101EF00007F02AFD00EE100A10BD00006666666657
:101F000066660A40000000000000264000000080D5
:101F100014AEEF3F000000000000303FFEE700007D
:101F200070B50D4C0025C4F8A8520C48016821F486
:101F300040010160016841F480010160C4F8AC52C5
:101F4000012004F52A7404F045FE0120206004F00D
:101F500041FE256070BD0000008040420004024048
:101F60001CB50121022001F01FF94FF4406001244B
:101F700000908DF8044000208DF8060003208DF8B5
:101F800005008DF8074069460448FFF78DFD0448B9
:101F9000C0F8A842C0F8AC421CBD000000040240DA
:101FA0000080404270B50D4C0026C4F8A8620C4871
:101FB000016821F440010160016841F48001016081
:101FC0000125C4F8AC52284604F52A7404F002FE38
:101FD0002560012004F0FEFD266070BD00804042B7
:101FE000000402402DE9F0478146184800250168A9
:101FF00021F44001016001680160154E2C462F4616
:102000004FF00108C6F8A872012004F0E3FDC6F8FD
:10201000A8826806D6F82C12000E11B140F0010516
:1020200001E020F00105012004F0D4FD641CE4B2BD
:10203000082CE7D3B9F1000F04D0FFF7B3FF28460F
:10204000BDE8F087FFF76CFFF9E7000000040240ED
:102050000080404270B50D46044600F01BF8204653
:1020600000F0B0F800F05EF8284600F0ABF800F0A1
:1020700059F800F00FF844F0010000F0A3F800F068
:1020800051F80120FFF7AEFF044600F02BF8204680
:1020900070BD000070B51148016821F44001016075
:1020A000016841F4800101600D4C0120C4F8AC02CC
:1020B000D4F82C1200290FD0C4F8A80204F08AFD2D
:1020C0000025C4F8AC52D4F82C02002804D1012019
:1020D00004F080FDC4F8A85270BD00000004024066
:1020E000008040420D4810B5016821F440010160B4
:1020F000016841F480010160094C0020C4F8A80285
:10210000C4F8AC02012004F52A7404F063FD012038
:1021100020606060BDE8104004F05CBD0004024037
:102120000080404270B512480024016821F440014B
:102130000160016801600F4D0126C5F8AC623046B0
:1021400004F048FDC5F8A86207E0641CE4B2322C34
:1021500003D9FFF7C7FF002070BD012004F03AFD4E
:10216000D5F82C020028F0D1C5F8A802012070BDD6
:1021700000040240008040422DE9F0411D46144613
:102180000F468046069EFFF765FF621CFF21C4F1E3
:10219000080301FA02F22B445B1ED9400A43C5F141
:1021A00008018E40D2B2F1B2C4F10703D940104009
:1021B00040EA01023946404600F034F80120BDE80B
:1021C000F08100002DE9F04105461448016821F432
:1021D00040010160016841F480010160104E002758
:1021E000C6F8A8723C464FF00108E809C6F8AC02F0
:1021F0006806050E012004F0EDFCC6F8A882012057
:1022000004F0E8FCC6F8A872012004F0E3FC641CAA
:10221000E4B2082CE9D3BDE8F081000000040240DC
:102220000080404270B515460E460446FFF732FF67
:102230002046FFF7C7FFFFF775FF3046FFF7C2FFE5
:10224000FFF770FF2846FFF7BDFFFFF76BFFFFF7B3
:1022500049FF012070BD0000174830EEC00A174941
:10226000D0ED050A174A91ED001A70EE600A144984
:1022700060EE810A91ED001A41EE000A90ED041A19
:1022800070EE810A10EE901AC0ED040A914203DD4F
:10229000DFED0D0AC0ED040A10EE901A0B4A9142D0
:1022A00003D9DFED0B0AC0ED040A80ED050ABDEE8F
:1022B000E00A10EE100A7047AC0100204C0100202B
:1022C000500100200078824600788246007882C65D
:1022D000007882C6174830EEC00A1749D0ED080AC8
:1022E000174A91ED001A70EE600A144960EE810AF7
:1022F00091ED001A41EE000A90ED071A70EE810A86
:1023000010EE901AC0ED070A914203DDDFED0D0AD1
:10231000C0ED070A10EE901A0B4A914203D9DFED87
:102320000B0AC0ED070A80ED080ABDEEE00A10EEC8
:10233000100A7047AC0100204C0100205001002021
:102340000078824600788246007882C6007882C68D
:10235000174830EEC00A1749D0ED0B0A174A91ED25
:10236000001A70EE600A144960EE810A91ED001ABD
:1023700041EE000A90ED0A1A70EE810A10EE901AF2
:10238000C0ED0A0A914203DDDFED0D0AC0ED0A0A35
:1023900010EE901A0B4A914203D9DFED0B0AC0ED03
:1023A0000A0A80ED0B0ABDEEE00A10EE100A704733
:1023B000AC0100204C010020500100200078824632
:1023C00000788246007882C6007882C6174830EED0
:1023D000C00A1749D0ED0E0A174A91ED001A70EEA7
:1023E000600A144960EE810A91ED001A41EE000A7C
:1023F00090ED0D1A70EE810A10EE901AC0ED0D0AE4
:10240000914203DDDFED0D0AC0ED0D0A10EE901ACA
:102410000B4A914203D9DFED0B0AC0ED0D0A80EDA6
:102420000E0ABDEEE00A10EE100A7047AC01002063
:102430004C0100205001002000788246007882463E
:10244000007882C6007882C61CB50121102000F0F9
:10245000ABFE00218DF80410032101208DF805103A
:1024600000908DF8070069460148FFF71DFB1CBD71
:102470000010024010B5322004F0CCF902280BD134
:10248000074906480A68026089888180064905482C
:102490000A6802608988818010BD00001402002053
:1024A0001A02002020020020260200207CB5012113
:1024B000084600F079FE01208DF8040000228DF816
:1024C000062003218DF80510074D4FF480548DF838
:1024D0000700009469462846FFF7E6FA2146284699
:1024E000FFF72EFB7CBD00000000024000EE900ACA
:1024F00041421E4AB8EEE01A00EE901A00B592ED85
:10250000010AF8EEE00A05F0AEFE00EE900A82ED58
:10251000010A174AB8EEE01A00EE901A92ED010A8D
:10252000F8EEE00A05F09FFE00EE900A82ED010A47
:10253000104AB8EEE01A00EE901A92ED010AF8EE99
:10254000E00A05F090FE00EE900A82ED010A0A4AC8
:10255000B8EEE01A00EE901A92ED010AF8EEE00AE9
:1025600005F081FE82ED010A00BD0000205A002026
:10257000345A0020485A00205C5A0020BC2801D35D
:10258000012210E0622801D302220CE02A2801D3A4
:10259000032208E0142801D3042204E00A2801D30E
:1025A000052200E006221A21D020FFF73BBE10B51D
:1025B00004464FF47A70844201D9044602E0042CA8
:1025C00000D20424B0FBF4F0401EC2B21921D02086
:1025D000FFF728FE6008BDE81040FFF7CFBF10B539
:1025E00080226B21D020FFF71DFEC82004F0D6FA10
:1025F00000226B21D020FFF715FE012000F03AF8F1
:10260000002000F02EF83220FFF7D1FF0022382101
:10261000D020FFF707FE00226A21D020FFF702FE3C
:1026200000222321D020FFF7FDFD80223721D0207A
:10263000FFF7F8FD7521D020FFF70CFD682801D0C9
:10264000012010BD01226B21D020FFF7EBFD0022FD
:102650006C21D020FFF7E6FD3220FFF7A8FF002015
:1026600010BD08B50223009004221C21D020FFF7E2
:1026700083FD08BD08B50223009004221B21D02051
:10268000FFF77AFD08BD000008B504F0DDFA0D4C37
:102690004FF47A7500900A21684606F047F92068E1
:1026A000A8420ADA401C2060606820612089A0826C
:1026B000D4F80A00E061E089208400F049F800F0D5
:1026C00003F8E8E70402002070B53C21D020FFF7B2
:1026D000C1FC04463B21D020FFF7BCFC04EB0020EA
:1026E0001A4C3E212080D020FFF7B4FC05463D2146
:1026F000D020FFF7AFFC05EB002060804021D02008
:10270000FFF7A8FC05463F21D020FFF7A3FC05EB0F
:10271000002000B2A4F10A01A0800968B1F57A7F17
:1027200012DB04F118032188198062885A8098808E
:102730009B1F1D88491B21805988511A61809988E7
:10274000401A00F58040A08070BD00000E020020FD
:1027500070B54421D020FFF77DFC04464321D020F2
:10276000FFF778FC04EB00201F4C46212080D0208E
:10277000FFF770FC05464521D020FFF76BFC05EB09
:10278000002060804821D020FFF764FC05464721E7
:10279000D020FFF75FFC05EB002000B2211FA080D6
:1027A00009684FF47A75114A114BA94203DA0120E6
:1027B0001860107070BDA94201D1002111704FF452
:1027C00096711960084B21881233198062885A80EB
:1027D00098809B1F1D88491B21805988511A618050
:1027E0009988401AA08070BD080200204401002092
:1027F00034000020FEE7704730B50F23C27801781F
:102800000125FAB1144A126801F1E02102F4E062F4
:10281000C2F5E062C2F30722C2F10404D340427859
:10282000A24084781C401443220181F800240078DF
:1028300000F01F018D404009800000F1E020C0F849
:10284000005130BD01F01F0085404809800000F1B3
:10285000E020C0F8805130BD0CED00E00249084393
:1028600002490860704700000000FA050CED00E026
:1028700010B40021084B0A46002003EBC004401CA2
:10288000C0B262548028F8D3491CC9B20829F3D3D6
:1028900010BC00F0B9B800002C02002010B57F2851
:1028A00016D83F2914D80723A3EBD10301F0070161
:1028B000C1F107040121A140064CDBB204EBC000CA
:1028C000002AC25CC9B201D00A4300E08A43C25464
:1028D00010BD00002C0200207CB50121082000F072
:1028E00063FC01268DF8046000244FF4F0408DF85D
:1028F000064000908DF805408DF807406946404835
:10290000FFF7D2F80121080700F05AFC012000F07F
:1029100045FC002000F0C0FC002000F03FFC394DD9
:10292000C5F8B042642005F52C7504F037F92E6027
:102930000021AE2000F02AF90021D52000F026F970
:102940000021502000F022F90021A82000F01EF9FB
:1029500000213F2000F01AF90021D32000F016F9E1
:102960000021084600F012F90021402000F00EF985
:1029700000218D2000F00AF90021142000F006F952
:102980000021202000F002F90021022000F0FEF8D2
:102990000021A12000F0FAF80021C02000F0F6F894
:1029A0000021DA2000F0F2F80021122000F0EEF809
:1029B0000021812000F0EAF80021EF2000F0E6F885
:1029C0000021D92000F0E2F80021F12000F0DEF82B
:1029D0000021DB2000F0DAF80021302000F0D6F8EA
:1029E0000021A42000F0D2F80021A62000F0CEF8AB
:1029F0000021AF2000F0CAF8FFF73AFF7CBD0000CD
:102A0000000C02400080414270B5104E002505F1D7
:102A1000B000C0B2002100F0B9F80021084600F073
:102A2000B5F80021102000F0B1F8002406EBC40036
:102A30000121405D00F0AAF8641CE4B2802CF5D3BB
:102A40006D1CEDB2082DE2D370BD00002C020020F9
:102A50002DE9F04F203A98460D468346894602F00C
:102A6000FF0A00262EE0B8F10C0F08D0174901EB41
:102A70000A100027845D200607D5099A08E014494A
:102A80000AEB4A0001EB8000F3E7099890B10022BD
:102A900029465846FFF702FF6D1C6006EDB2040E92
:102AA000A5EB0901414507D10BF101004D4600F0AE
:102AB000FF0B05E00122EBE77F1CFFB2082FDAD302
:102AC000761CF6B24645CED3BDE8F08F46AB000883
:102AD000D2A600082DE9FF4F81B00027DDF838B0FD
:102AE0001D46924680463C464FF001094FEA5B0680
:102AF00027E0281B401EC1B20A2004F0DFF8BAFB11
:102B0000F0F00A21B0FBF1F201FB120027B9691EB7
:102B10008C4201DA48B101273030C2B206FB048092
:102B2000C0B25B46CDF8009006E006FB0480C0B260
:102B30005B462022CDF800900299FFF789FF641CC4
:102B4000E4B2AC42D5D305B0BDE8F08FF8B5164677
:102B50000D460446012714E07A2C02D900241035D2
:102B6000EDB23A2D03D900242546FFF781FE0097E8
:102B700032780C2329462046FFF76AFF0834E4B276
:102B8000761C30780028E7D1F8BD000030B500236E
:102B90000E4A012411B1C2F8AC4201E0C2F8AC32D5
:102BA0000021C2F8B832050602D5C2F8B44201E0ED
:102BB000C2F8B432C2F8B8424006491C000EC9B28D
:102BC0000829EED3C2F8AC4230BD0000008041427B
:102BD0000020044A01461154401CC0B20928FAD30F
:102BE000704700002C0600202DE9F8430125074618
:102BF000ADF800501B4800264670ADF800501A4C46
:102C000080464FF6FF7924E0BDF80000384202D03C
:102C1000C4F8B05201E0C4F8B062C4F8A052052074
:102C200003F0D8FFC4F8A062052003F0D3FFC4F876
:102C3000A052D4F83C0230B198F80110BDF8002041
:102C4000114388F80110BDF8001009EA4100ADF801
:102C50000000BDF80000FF28D6D9BDE8F8431020D9
:102C600003F0B8BF2C0600200000424270B5FFF709
:102C7000AFFF00F013F90B480B4AB0F803400A48C5
:102C8000083244800020012512F8103000F10100C4
:102C90005B1E05FA03F12142C0B202D01028F3D323
:102CA000002070BD2C0600203C00002010B5154C03
:102CB0000020C4F8A802102004F52A7403F08AFF4B
:102CC0000120FFF791FF4320FFF78EFF0020FFF761
:102CD0008BFF0120FFF788FF0020FFF785FF002012
:102CE000FFF782FF0020FFF77FFF0020FFF77CFF48
:102CF0000020FFF779FF01202060BDE81040102080
:102D000003F068BF0000424210B5154C0020C4F823
:102D1000A802102004F52A7403F05CFF0120FFF7DD
:102D200063FF4320FFF760FF0020FFF75DFF0020F7
:102D3000FFF75AFF5A20FFF757FF5A20FFF754FFBB
:102D40005A20FFF751FF5A20FFF74EFF5A20FFF796
:102D50004BFF01202060BDE81040102003F03ABF77
:102D6000000042427CB50121102000F01DFA4FF412
:102D70000040002400908DF8044003208DF80500E9
:102D80000C4E02258DF8075069463046FEF78CFE42
:102D900001218DF804108DF806404FF4A8508DF8ED
:102DA000055000908DF8071069463046FEF77CFE0E
:102DB0007CBD00000010024010B5FFF757FF00EE89
:102DC000100A27482C4BB8EE400A012280ED000A79
:102DD0002448C17900EE901A2349F8EE600AC1ED4B
:102DE000000A017A00EE901A2049F8EE600AC1ED5F
:102DF000000A417901EE101A1D49B8EE411A81ED21
:102E0000001A807910EE101A01EE100A1948B1F17B
:102E1000814FB8EE411A80ED001A184801D10178AF
:102E2000E1B15968002918D010EE901A144B99425C
:102E300013DA0178002910D112490968B1F57A7FB7
:102E40000BDB11490270002008701049087010490E
:102E50000870104908701049087010BD5A60E3E707
:102E6000A80100202C060020980100209C010020D1
:102E7000A0010020A40100203C00002054010020FB
:102E80000000EC4204020020560100205501002001
:102E90005701002090010020910100202DE9FC4104
:102EA00000268DF800600125ADF80450224CC4F8CE
:102EB000A862224F3878FFF797FE7878FFF794FEE4
:102EC00002208DF800001E4F4FF6FF782CE0ADF881
:102ED00004501DE0C4F8A052052003F07BFEC4F8A6
:102EE000A062052003F076FEC4F8A052D4F83C029C
:102EF00040B19DF80000BDF80410385C08439DF80F
:102F000000107854BDF8041008EA4100ADF8040040
:102F1000BDF80400FF28DDD9102003F05BFE9DF80A
:102F20000000401C8DF800009DF800000928CED359
:102F3000C4F8A852BDE8FC81000042423C000020D9
:102F40002C06002010B500F00DF800F00BF800F092
:102F500009F8FFF7ABFE00F027F8BDE81040FFF7D7
:102F6000D3BE000010B50F4C0020C4F8A8021020FA
:102F700004F52A7403F02EFE0120FFF735FE4220EF
:102F8000FFF732FE0020FFF72FFE0020FFF72CFE98
:102F90000020FFF729FE01202060BDE8104010202E
:102FA00003F018BE0000424210B5144C0020C4F8D3
:102FB000A802012004F52A74FFF716FE4420FFF74B
:102FC00013FE0020FFF710FE0120FFF70DFE032087
:102FD000FFF70AFE0020FFF707FE0020FFF704FEC0
:102FE0000020FFF701FE0020FFF7FEFD012020601A
:102FF000BDE81040102003F0EDBD0000000042428B
:10300000554830B4D0ED000A9FED540A54486FF093
:10301000130370EE600AFDEEE00A10EE901AD0ED98
:10302000000A504870EE600AFDEEE00A10EE902AA9
:10303000D0ED000A9A4230EE600ABDEEC00A10EEF2
:10304000100A02DD142A00DA0022994202DD142956
:1030500000DA0021984202DD142800DA0020424BF9
:10306000434C424D1B6894ED000AF1EE040AAB425A
:1030700002D130EE200A04E03E4DAB4203D130EEE7
:10308000600A84ED000AB5EEC00AF1EE10FA03D230
:103090009FED390A84ED000A00EE102A01EE901A25
:1030A000D4ED000AB8EEC00A02EE100AF8EEE11AFA
:1030B000DFED352AB8EEC22A20EE201A9FED2F0A46
:1030C00061EEA01A22EE222A21EE001A2C4A61EEAD
:1030D000801A2C4B22EE000A2C4982ED001A2C4853
:1030E000C3ED001A81ED000A00789FED2A2AF0B1A5
:1030F00001281CD0022806D003280FD005280DD0A7
:1031000004280BD019E0F0EE000A20EE200AF2EEBF
:10311000020A80EE202A81ED002A0EE0B5EEC01AE8
:10312000F1EE10FA03D2B1EE400A81ED000A20EE72
:10313000200AC0EE020AC1ED000A9FED172A81EEB7
:10314000020AC1EE820A82ED000AC3ED000A91ED87
:10315000001A30BCFEF7ACB8980100200000004314
:103160009C010020A0010020A801002000003041A7
:103170004801002000001041000000000000003C59
:103180007001002074010020DB0FC93F780100208E
:10319000450100200000FA4300007A44014908621A
:1031A0007047000000000E42044A0029116801D057
:1031B000014300E081431160704700003038024055
:1031C000044A0029116801D0014300E081431160E5
:1031D0007047000040380240044A0029116801D0BD
:1031E000014300E081431160704700004438024011
:1031F000044A0029116801D0014300E081431160B5
:10320000704700002438024070B5204B1968204CEC
:1032100011F00C0104D06610042903D0082903D052
:1032200004601BE0066019E0184A121F1168C1F320
:103230008055116801F03F0115B1B6FBF1F101E0D5
:10324000B4FBF1F114681268C4F388146143C2F34B
:103250000142521C5200B1FBF2F1016019680F22C9
:1032600002EA11110B4A545C0168E14041601C689C
:10327000072505EA9424145D21FA04F484601B6890
:1032800005EA5333D25CD140C16070BD08380240BA
:103290000024F400C0000020054900220A700A70D2
:1032A000012802D0042801D10520087070470000D1
:1032B000703802400021022807D003280BD00428D0
:1032C0000BD005280BD0002070474FF08042506A89
:1032D000516200B27047044A02E0044A00E0044A26
:1032E0001068116000B270472404004024080040B8
:1032F000240C00402DE9F0414FF4FA66614B771041
:1033000032463946186804F0BEFF5F4D18603246F9
:103310003946286804F0B7FF5C4C286032463946CD
:10332000206804F0B0FF3246594E206039463068BC
:1033300004F0A9FF30602A6821681B686FF06304FD
:10334000A2F2DC52A0F2DC50A1F2DC51A3F2DC5379
:10335000A24202DD642A00DA0022A04202DD6428D3
:1033600000DA0020A14202DD642900DA0021A34234
:1033700002DD642B00DA002300EE101A454CB8EE93
:10338000C00AD4ED000A30EE800ABDEEC00A10EE8D
:10339000101A002900DA00214FF4FA754A4392FB13
:1033A000F5F24042484390FBF5F000EE102ADFEDC5
:1033B0003C1A394CF8EEC00A00EE100A5842374D5C
:1033C000B8EEC01A00EE100A374AC4ED000AB8EE93
:1033D000C00A364885ED001A20EE212ADFED311AA9
:1033E00082EE210A82ED000A007850B1012808D04F
:1033F00002280DD0032812D0052810D004280ED0A2
:1034000022E002EE101AB8EEC22A20EE020A17E0FD
:10341000F0EE001A20EE210AF2EE021A10E0F5EEAC
:10342000C00AF1EE10FA03D2B1EE400A82ED000AB2
:10343000B0EE402A00EE101AB8EEC00A22EE000AE2
:1034400080EE212A82ED002A9FED190A1949C0EE6B
:10345000801AC1EE000AC4ED001AC5ED000A087812
:1034600038B19FED150A401E84ED000A82ED000A76
:10347000087092ED001A94ED000ABDE8F041FDF7E6
:1034800017BF0000780000207C0000208000002092
:1034900084000020480100207001002074010020F9
:1034A000DB0FC93F0000FA437801002045010020EE
:1034B00000007A44AC0100200000000010B551EC7F
:1034C000100B2DED068BB0EE439AF0EE629AB0EE43
:1034D00042AAF0EE618AB0EE418A06F035FABDEEFE
:1034E000CA0A154910EE102ABDEEE90A086081EDFE
:1034F000018A10EE103AC1ED058AC1E9022381ED7F
:10350000049A9900514300EE101A0C49B8EEC00A13
:1035100081ED000A9FED0A0A0A4929EE000A81EDB1
:10352000000A09490860094880ED008A0848C0ED92
:10353000008ABDEC068B10BD805A00207C01002063
:10354000DB0F494080010020840100208801002019
:103550008C01002070B5394C4FF4AD700A21206009
:103560000920FEF78FFC2168354C90FBF1F0C0B2CA
:103570002070052801D905202070C0B2DFED312A66
:103580009FED311A9FED313A062819D2DFE800F09D
:10359000030E252E353EF0EE411A9FED2D3AB3EE87
:1035A0000E2A9FED2C1A9FED2C0B07E09FED2C3A75
:1035B000B3EE0E2ADFED2B1A9FED2B0BFFF77EFFEC
:1035C0002578042208242A482A490723062D30D2C8
:1035D000DFE805F0252830302C30F0EE411AB3EE4C
:1035E0000E2A9FED251A9FED250BE7E7B3EE0E2A75
:1035F000F0EE411A9FED230BE0E7F0EE411AB3EE37
:103600000E2A9FED221A9FED220BD7E79FED223A5B
:10361000B3EE0E2AF0EE411A9FED200BCEE70460C8
:103620000E2005E0062202600A2001E004600B2063
:10363000086070BD02600B6070BD00006801002072
:10364000450100200000FA4300000000B81E853D3F
:103650009A99993D7B14AE3D022B8716D9CEB73F80
:103660008FC2753D643BDF3D00000000000000009C
:103670006001002064010020BC74133E0000008043
:103680006ABCC43F000000A0EFA7C63FE926313E58
:10369000000000C09DEFC73FC520303D000000E0A6
:1036A0007A14CE3F0CB50022274900920192086897
:1036B00040F4803008604FF4A043086800F4003004
:1036C00001900098401C0090019810B90098984211
:1036D000F3D10868800334D5012001901A484030A6
:1036E000026842F0805202601848026842F4404288
:1036F00002601548083002680260026842F4004225
:103700000260026842F4A0520260031F104A1A606D
:103710000A6842F080720A600A689201FCD50D497D
:1037200040F205720A60016821F00301016001683E
:1037300041F0020101600168C1F381010229FAD15F
:103740000CBD01920CBD000000380240007000402A
:1037500008544007003C0240F0B5174E174F059D36
:1037600044F29F14002803DA34602044386002E0F9
:103770003C60201A30601248002903DA4463214477
:10378000816302E08463611A41630E48002A03DA10
:1037900084631119416302E04463A11A8163002B21
:1037A00003DA04641919C16302E0C463E11A016415
:1037B00005480560F0BD0000344401403448014034
:1037C00000400140000001403818004000B5B0EE54
:1037D000412AF0EE602AB0EE401A9FED490A4948AE
:1037E000D0ED001ADFED480AB5EEC01AF1EE10FA7E
:1037F00002DD71EE801A0EE0B5EEC01AF1EE10FA9D
:1038000002D271EEC01A06E0B5EEC01AF1EE10FA5F
:1038100003D161EEA01AC0ED001A3A49F5EEC02AB4
:10382000D1ED011AF1EE10FA02DD71EE801A0EE010
:10383000F5EEC02AF1EE10FA02D271EEC01A06E0DF
:10384000F5EEC02AF1EE10FA03D161EEA01AC0ED38
:10385000011A2C49B5EEC02AD1ED021AF1EE10FA88
:1038600002DD31EE800A0EE0B5EEC02AF1EE10FA6C
:1038700002D231EEC00A06E0B5EEC02AF1EE10FA2F
:1038800003D121EEA00A80ED020AB0EE410A03F056
:10389000C7F9F0EE400AB0EE410A03F0C1F9F1EECB
:1038A000401AB0EE601A90ED000AF0EE610A04F0E2
:1038B000DAFC80ED000AB0EE620A03F0B1F9B0EE76
:1038C000401AB0EE620A03F0ABF9F1EE400A90ED57
:1038D000010A04F0C8FC80ED010AB0EE420A03F0D0
:1038E0009FF9B0EE401AB0EE420A03F099F9F1EEFA
:1038F000400A90ED020A04F0B6FC80ED020A00BD19
:103900000AD7233C145A00206666663F4FF0E02138
:103910000428086903D020F004000861704740F0D3
:103920000400FAE710B505F0A7FD012803D0BDE8B3
:10393000104005F095BA10BD124810B5016841F469
:10394000700101601048016841F0010101600E4AF8
:1039500000210832116002680C4B1A400260031DFE
:103960000B4A1A60026822F48022026006480C307A
:103970000160FFF797FE03494FF00060803908604F
:1039800010BD000088ED00E000380240FFFFF6FEA9
:103990001030002470B5048C24F001040484058BDD
:1039A000048C4FF6FF7606EA0313134325F0F30564
:1039B0002B4324F00A020A4342F0010103830184ED
:1039C00070BDF0B5048C24F010040484078B068CC1
:1039D0004FF6FF7404EA011527F4734704EA033134
:1039E000394304EA02220A4326F0A001294341F0A8
:1039F000100102830184F0BD2DE9F041884607469D
:103A00008AB001210220FFF7CFFB01214804FFF714
:103A1000E3FB1F4E032208213046FEF781F8022007
:103A20008DF804000024C0018DF8064001250090A7
:103A30008DF8075003208DF8050069463046FEF7E3
:103A400033F8144EADF808800397ADF81040ADF888
:103A50000A4002A9304600F0BFFD6020ADF8140016
:103A6000ADF81650ADF8204005A9304600F068FCCE
:103A70000821304600F09AFC0121304600F0A8FBF6
:103A80000121304600F0B4FB0AB0BDE8F08100002F
:103A900000040240004401402DE9F04188460746F9
:103AA0008AB001210220FFF77FFB01218804FFF784
:103AB00093FB214E032209213046FEF731F8022004
:103AC0008DF80400002400028DF8064001250090C6
:103AD0008DF8075003208DF8050069463046FDF744
:103AE000E3FF164EADF808800397ADF81040ADF82F
:103AF0000A4002A9304600F06FFD6020ADF81400C6
:103B0000ADF81650ADF8204005A9304600F018FC7D
:103B10000821304600F04AFC0121304600F072FBDB
:103B20000121304600F054FB0121304600F060FBDB
:103B30000AB0BDE8F08100000004024000480140E6
:103B40002DE9F041884606468AB001214020FFF762
:103B500037FB01210220FFF727FB02208DF8180018
:103B60004FF44040059003208DF819000024264FA3
:103B70008DF81A4001258DF81B5005A93846FDF730
:103B800093FF09220E213846FDF7CAFF09220F21B3
:103B90003846FDF7C5FF08961C4EADF81C80ADF801
:103BA0002440ADF81E4007A9304600F015FD602006
:103BB000ADF80000ADF802500294ADF80C40ADF83D
:103BC00010406946304600F0BBFB6946304600F0C5
:103BD000F3FB0821304600F0E9FB0821304600F0F5
:103BE00035FC0121304600F00DFB0121304600F08C
:103BF000FFFA064940F2DC5038310860091F0860BE
:103C00000AB0BDE8F0810000000402400018004046
:103C10002DE9F0418846074601218AB00846FFF7A2
:103C2000DBFA01211020FFF7BFFA354E01220921EE
:103C30003046FDF775FF01220B213046FDF770FF7E
:103C400001220D213046FDF76BFF01220E21304687
:103C5000FDF766FF4FF4D440059002208DF8180060
:103C600003208DF8190000248DF81A4001258DF8E5
:103C70001B5005A93046FDF717FF224EADF81C80FA
:103C80000897ADF82450ADF81E4007A9304600F063
:103C9000A3FC6020ADF80000ADF80250ADF80C4078
:103CA0006946304600F04CFB6946304600F084FB24
:103CB0006946304600F0D4FB6946304600F01EFCF1
:103CC0000121304600F09EFA0821304600F06EFBDC
:103CD0000821304600F0BAFB0821304600F008FC0D
:103CE0000821304600F044FC0121304600F070FA13
:103CF0000121304600F07CFA0AB0BDE8F0810000F6
:103D000000100240000001404FF08040018A018A0B
:103D100021F001010182704703480188018821F0E8
:103D20000101018070470000100400400348018831
:103D3000018821F001010180704700001008004057
:103D400003480188018821F00101018070470000CB
:103D5000100C004003480188018821F00101018016
:103D600070470000101800402DE9F0478E480024ED
:103D70008169B1F5C86F13DD8C490A7882B98C4A24
:103D80001268B2F57A7F0BDB01220A7089490C7048
:103D900089490C7089490C7089490C7089490C70EB
:103DA00080460078884D000642F20F764FF4FA778D
:103DB0002DD40221284600F051FA40B302212846B2
:103DC00000F013FA98F80000400628463DD500F0B0
:103DD0003DFA80B2A8F80600B8F8041042468842BE
:103DE00001D2566300E05463401A516B084450619D
:103DF000516A401A00D54042B84200DD5161506915
:103E0000506288F800400021284600F0C9FA98F86E
:103E1000010000063AD40421284600F01FFAA8B396
:103E20000421284600F0E1F998F8010040062846F0
:103E30004AD500F00DFA80B2A8F80A00B8F80810C8
:103E4000424688420ED296630DE000F0FFF901462B
:103E5000A8F8041098F8001041F0400188F800100C
:103E60000221D1E79463401A916B08449061916AF2
:103E7000401A00D54042B84200DD916190699062DD
:103E800088F801400021284600F0D6FA98F8020090
:103E900000063AD40821284600F0E0F9A8B308212A
:103EA000284600F0A2F998F80200400628464BD5B3
:103EB00000F0D0F980B2A8F80E00B8F80C10424615
:103EC00088420ED2D6630DE000F0C2F90146A8F890
:103ED000081098F8011041F0400188F80110022103
:103EE000D1E7D463401AD16B0844D061D16A401A3B
:103EF00000D54042B84200DDD161D069D06288F877
:103F000002400021284600F0E9FA98F80300C14673
:103F1000000647D41021284600F0A0F9002841D01F
:103F20001021A846284600F060F999F803004D4694
:103F300040062BD5404600F08FF980B26882298A6E
:103F400088420ED22E640DE000F084F90146A8F8F4
:103F50000C1098F8021041F0400188F8021002217C
:103F6000D0E72C64401A296C08442862296B401A57
:103F700000D54042B84200DD2962286A2863EC700F
:103F800000214046BDE8F04700F0E8BA444640460C
:103F900000F062F92882E878022140F04000E870E1
:103FA0002046EFE7BDE8F0876400002056010020BE
:103FB0000402002055010020540100205701002078
:103FC0009001002091010020000401402DE9F04102
:103FD000884605468AB001210220FFF7FDF801213D
:103FE0000420FFF7E1F84FF47070022603908DF87B
:103FF000106003208DF811000024414F8DF812400D
:104000008DF8136003A93846FDF74EFD0322062103
:104010003846FDF785FD032207213846FDF780FD70
:10402000032208213846FDF77BFD0322092138468B
:10403000FDF776FD334FADF814800695ADF81C40C2
:10404000ADF8164005A9384600F0C6FA01250F2044
:10405000ADF80040ADF80450ADF80800ADF80240EE
:10406000ADF806406946384600F004F90420ADF882
:104070000000ADF80450ADF80240ADF80640ADF8D0
:1040800008406946384600F0F5F80820ADF8000011
:10409000ADF80450ADF80240ADF80640ADF8084068
:1040A0006946384600F0E6F80C20ADF80000ADF89F
:1040B0000450ADF80240ADF80640ADF8084069463E
:1040C000384600F0D7F82E208DF820008DF82160BA
:1040D0008DF822608DF8235008A8FEF78DFB012291
:1040E0001E21384600F024F90121384600F08AF8F4
:1040F0000121384600F07CF80AB0BDE8F0810000EC
:1041000000080240000401400248018821F001013A
:1041100001807047100401402DE9F0438946804634
:1041200001218BB00804FFF757F801211020FFF799
:104130003BF8254F032205213846FDF7F1FC032209
:1041400006213846FDF7ECFC02208DF8180003200C
:104150008DF81900002460268DF81A400125059677
:104160008DF81B5005A93846FDF79EFC174FADF89A
:104170001C90CDF82080ADF82440ADF81E4007A972
:10418000384600F029FAADF80060ADF80250ADF8FD
:104190000C406946384600F0D3F86946384600F0CE
:1041A0000BF90821384600F001F90821384600F0E3
:1041B0004DF90121384600F00BF80121384600F096
:1041C00017F80BB0BDE8F08300100240004001403A
:1041D0000029018802D041F0800101E021F0800136
:1041E00001807047C94301827047C943018270470B
:1041F0000029018802D041F0010101E021F0010114
:1042000001807047002930F8441F02D041F400417A
:1042100001E0C1F30E010180704770B50589048B80
:10422000068C25F007050D434FF6FC410C4040F28B
:1042300001110C434FF6FF7101EA031126F022062B
:104240001143314305810483018470BD406B704785
:10425000806B7047C06B7047006C7047024600204F
:10426000138A92890B4202EA010202D0002A00D08E
:10427000012070472DE9F0410C460E884988A2883C
:104280002389054616B3042E28D0082E2E8C4FF60F
:10429000FF702BD026F480562E84AF8B2E8C00EA34
:1042A000022200EA013127F473473A4300EA03305F
:1042B000104326F420420A4342F48051A883298403
:1042C000E1882846BDE8F04100F07AB9FFF762FBCB
:1042D000E1882846BDE8F04100F056B9FFF771FBD0
:1042E000E1882846BDE8F04100F056B926F4807612
:1042F0002E84AF8B2E8C00EA012100EA03101043BC
:1043000027F0F307384326F420620A4342F4807111
:10431000A8832984E1882846BDE8F04100F048B927
:1043200000210180418001228280C180018170478B
:10433000002A828901D00A4300E08A4382817047C3
:1043400030B5028C22F001020284028C8388048B37
:1043500022F0020224F073050C882C438D8915434A
:104360004A882A430C4DA84202D00C4DA8420DD1D8
:1043700022F00805CA8923F440732A4322F0040579
:104380008A882A430D8A1D434B8A2B4383800483EA
:1043900089684163028430BD00000140000401408F
:1043A000028C22F002020A4302847047028B22F040
:1043B00008020A430283704770B5028C22F0100293
:1043C0000284028C8388048B0D8824F4E6464FF621
:1043D000FF7404EA052535438E8922F0200204EAA1
:1043E000061616434A8804EA02123243104EB042BF
:1043F00002D0104EB04215D122F08006CA8923F4B3
:10440000406304EA0212324322F040068A8804EA3A
:10441000021232430E8A04EA86061E434B8A04EADD
:10442000830333438380058389688163028470BD7D
:104430000000014000040140028C4FF6FF7322F09F
:10444000200203EA0111114301847047028B4FF6E9
:10445000FF7322F4006203EA0121114301837047D4
:1044600070B5028C22F480720284028C8388848B63
:104470000D8824F0730425438E894FF6FF7422F4CF
:10448000007204EA062616434A8804EA02223243EE
:10449000104EB04202D0104EB04215D122F4006648
:1044A000CA8923F4405304EA0222324322F480668C
:1044B0008A8804EA022232430E8A04EA06161E4360
:1044C0004B8A04EA03133343838085838968C1637D
:1044D000028470BD0000014000040140028C4FF6D0
:1044E000FF7322F4007203EA012111430184704733
:1044F000828B22F008020A438283704770B5028CD7
:1045000022F480520284058C8288838B0C8823F4E9
:10451000E6464FF6FF7303EA0424344325F40056BD
:104520008D8903EA053535434E8803EA06362E4366
:10453000084DA84202D0084DA84205D122F480457A
:104540000A8A03EA82122A4382808483896801648A
:10455000068470BD0000014000040140028C4FF64B
:10456000FF7322F4005203EA0131114301847047C2
:10457000828B4FF6FF7322F4006203EA012111439C
:104580008183704741627047028B22F00C020283E4
:10459000028B0A4302837047028B22F4406202833B
:1045A000028B4FF6FF7303EA01210A43028370472F
:1045B000828B22F00C028283828B0A4382837047B3
:1045C000828B22F440628283828B4FF6FF7303EA70
:1045D00001210A438283704730B50288164C174D7B
:1045E000A0420DD0A8420BD0B0F1804F08D0144BA0
:1045F000984205D0134B984202D0134B984203D1F6
:1046000022F070034A881A43104B984206D0104B90
:10461000984203D022F440730A891A4302804A6800
:10462000C2620A880285A04201D0A84201D1897ADB
:1046300001860121818230BD00000140000401405B
:104640000004004000080040000C00400010004042
:10465000001400404FF0FF314160002101800181D2
:1046600041808172704700000A2809DB0C48D0F8AD
:104670000C0228B10B480078012801D000207047B7
:10468000094A012000211160084A1160084A51635B
:104690009163084A916391631164D163704700008C
:1046A000008041424401002034440140344801402C
:1046B000004001400000014070B52F4C40F22551F0
:1046C000204600F0C7FA00284ED0204600F050FBEC
:1046D000C1B22A480068B0F57A7F45DB294A284CE8
:1046E000002590797B29215400D028B1401CC0B20C
:1046F00090710B2802D037E0957135E09571A07A62
:104700007D2831D100210920FCF7B4FD617A88426F
:104710002AD11D4805701D4805701D4805701D48AB
:1047200005701D4805701D4805702179E07800F07E
:104730007BFB1B4D85ED000AA179607900F074FBCD
:10474000184880ED000A217AE07900F06DFB1648E8
:10475000164EF0EE400A0078022807D0217AE07960
:1047600000F062FB86ED000A002070BD95ED000AA6
:1047700000F004FBF6E7000000500040B00100200C
:10478000A8060020A80000205401002056010020A7
:10479000550100205701002091010020E801002070
:1047A00070010020740100204501002078010020E4
:1047B00070B5334D40F22551284600F04BFA0028E1
:1047C00056D000240126284600F0D2FAC1B22D4866
:1047D0000068B0F57A7F4BDB2C4B2B4D002218780C
:1047E0007B29295400D028B1401CC0B218700B2876
:1047F00002D03DE01A703BE01A70A87A7D2837D1CC
:104800000020295C401C4C400928FADB687AA04251
:1048100000D06EBB1E48017849B9012101701D48C6
:1048200002701D4802701D4802701D4802701D482C
:1048300002702979E87800F0F7FA1B4C84ED000A41
:10484000A979687900F0F0FA184880ED000A297A11
:10485000E87900F0E9FA1648164EF0EE400A0078C2
:10486000022807D0297AE87900F0DEFA86ED000AFE
:10487000002070BD94ED000A00F080FAF6E7000019
:1048800000100140B001002038060020A8000020E0
:104890009001002055010020540100205601002005
:1048A00057010020E8010020700100207401002061
:1048B000450100207801002000B5054B0022985CDE
:1048C00003F05AFE521CD2B2182AF8D300BD0000E1
:1048D000760600202DE9F04140F225512DED048BA4
:1048E000734800F0B7F9002872D07148001D0088A5
:1048F00070490968B1F57A7F6ADB012100246E4DA9
:10490000412810D12A79412A0DD16C4A137853B924
:104910006B4B1C706B4B1C7011706B4A14706B4AA4
:1049200014706B4A1470C3B26A4A6B4FDFF8ACC1A3
:104930006B4E2B714B2808D0492808D04A2806D046
:1049400036782EB1012E0BD01EE031700CE03470A1
:10495000A0F14106072E26D9082814DC137013E0B5
:10496000432809D047280BD03C708CF800404128E0
:1049700019D0452817D006E03C708CF8001002E0F2
:1049800039708CF8004014709FED560A564A9FED1E
:10499000579A574E58280AD059280DD07B2818D03E
:1049A0007D281CD00EE0A0F140061670ECE7D6ED95
:1049B000000A30EE800A03E0D6ED000A30EEC00AAD
:1049C00086ED000A6878012804D0022809D060E04A
:1049D00068E06970A8781354401CA87059E0022060
:1049E0006870D078502806D05078232848D0A8780E
:1049F000E87090462AE03F48017041E0A978081A23
:104A000005F017FA41EC110B9FED3B0B00F0BCFBDE
:104A1000EF78B0EE408A08EB0700F0EE608A10F8FD
:104A2000010C303805F005FA53EC182B05F068FA44
:104A300041EC180BA86805F059FD53EC182B04F055
:104A4000B5FF04F081FF7F1EA860EF70E8780428AE
:104A5000D4D298F801003038032811D2DFE800F0F2
:104A600002070B0095ED020A86ED000A08E095EDBD
:104A7000020A234802E095ED020A224880ED000A6E
:104A80006C70AC70EC7085ED029A32211648FBF721
:104A900064FD96ED000AB5EEC00AF1EE10FA01D2FF
:104AA00086ED009A0020BDEC048BBDE8F08100008B
:104AB0000044004004020020A8000020550100200E
:104AC00054010020560100205701002090010020D1
:104AD0009101002058010020920100209301002044
:104AE000940100200000C84243060020000000009E
:104AF0004801002095010020000000000000244033
:104B00004C0100205001002070B5304C40F225517E
:104B1000204600F09FF8002850D0204600F028F9E9
:104B2000C1B22B480068B0F57A7F47DB2A4A294D8D
:104B3000002450797B29295400D028B1401CC0B2F0
:104B400050710B2802D039E0547137E05471A87AC3
:104B50007D2833D100210920FCF78CFB697A88423B
:104B60002CD11E4804701E4804701E4804701E4854
:104B700004701E4804701E4804701E480470297991
:104B8000E87800F051F91C4C84ED000AA9796879A5
:104B900000F04AF9194880ED000A297AE87900F016
:104BA00043F91748174EF0EE400A0078022807D064
:104BB000297AE87900F038F986ED000A002070BD06
:104BC00094ED000A00F0DAF8F6E700000048004033
:104BD000B0010020A8060020A800002054010020F9
:104BE00056010020550100205701002090010020AF
:104BF00091010020E80100207001002074010020D4
:104C0000450100207801002000B5054B0022985C8A
:104C100003F0BAFC521CD2B2182AF8D300BD00002F
:104C20007606002000B5054B0022985C03F0B6FC28
:104C3000521CD2B2182AF8D300BD0000760600201C
:104C40000029818902D041F4005101E021F4005192
:104C50008181704770B501F01F0501260024C1F362
:104C6000421306FA05F2012B0FD0022B0FD0838AD4
:104C70004FEA11210088134206FA01F600EA060005
:104C800001D000B10124204670BD8389F0E7038A7A
:104C9000EEE710B5C1F3421301F01F040121A1405A
:104CA000012B07D0022B07D01430002A026805D050
:104CB0000A4304E00C30F8E71030F6E78A4302605C
:104CC00010BD00007FB50446008A0D46C98820F457
:104CD000405001432182A08941F20C618843A98898
:104CE0002A8911436A8902431143A181A08A20F4D1
:104CF0004071A8890843A0826846FEF785FA1A48E1
:104D0000844202D01948844201D1039800E00298FD
:104D1000A189090400EBC00101EB0010296801D54D
:104D2000490000E08900B0FBF1F06422B0FBF2F131
:104D300009010B096FF018056B4300EB8300A38991
:104D40001D044FF0320306D503EBC000B0FBF2F0B8
:104D500000F0070005E003EB0010B0FBF2F000F0FC
:104D60000F00084320817FBD001001400014014066
:104D70008088C0F308007047FEE7000010B52DEDF5
:104D8000048BB0EE608AB0EE409ADFED238AB5EE78
:104D9000C08AF1EE10FA3CD0B5EEC09AF1EE10FAEE
:104DA00037D089EE080A01F03BFFB4EEE80AF1EED5
:104DB00010FA0FD8B5EEC08AF1EE10FAB0EE490A3B
:104DC00002DD01F02DFF03E001F02AFFB1EE400A01
:104DD00080EE288A1148B6EE001A90ED000A1048BD
:104DE000C9EE080A40EE010A90ED001A81EE200A91
:104DF00010EE100A05F07AFB41EC100B00F058F8A9
:104E000051EC100B04F0A0FD00EE100ABDEC048B79
:104E100010BD9FED040AF9E73333B33E840100204F
:104E2000880100200000000070B501EB002004B2F2
:104E30004FF47A7594FBF5F005FB10402DED028BD5
:104E400004F0F7FF9FED0B1B53EC112B05F058F806
:104E500041EC180B94FBF5F004F0EBFF53EC182B2E
:104E600004F0A4FD04F070FDBDEC028B00EE100A0E
:104E700070BD0000FCA9F1D24D62503F03B401980F
:104E80004100009850EAC12018BF04204A0D18BF05
:104E900040F0010040F2FF72B2EB515F08BF40F0FA
:104EA0000200012808BF052002B070470000000082
:104EB00070B59B482DED020B2DED068B079D25F05F
:104EC0000044A04218DC9748844202DC0AD10698CC
:104ED00040B19DED060BBDEC068B02B0BDE8704005
:104EE00001F052BC002DCCBF9FED8F0B9FED900BBE
:104EF000BDEC068B02B070BD8F48A04215DD8F4817
:104F0000A042D8BF4FF0FF3458DD9DED060B51ECA9
:104F1000100BFFF7B3FF042808BF01F069FC9DEDFB
:104F2000060BBDEC068B02B070BD9DED060B51EC7F
:104F3000100B01F069FECDE9060181489FED828BDF
:104F4000A0423CDD8248A0421FDD00249FED82ABE1
:104F50009DED060B53EC1A2B51EC100B04F026FDC3
:104F60009DED060B41EC190B53EC1A2B51EC100B79
:104F700004F0C6FF53EC182B05F0CEF953EC192BB7
:104F800004F0D0FDCDE9060149E09DED060B0124BA
:104F900053EC182B51EC100B04F008FD9DED060BA3
:104FA00041EC190B53EC182B51EC100B05F0B4F934
:104FB00053EC192B04F0B6FDCDE906012FE068484B
:104FC000A0421FDD02249FED689B9DED060B53EC74
:104FD000192B51EC100B04F093FF53EC182B04F039
:104FE000E5FC9DED060B41EC180B53EC192B51EC35
:104FF000100B05F091F953EC182B04F093FDCDE95B
:1050000006010CE09DED060B032453EC102B9FEDE5
:10501000580B51EC100B04F085FDCDE906019DED18
:10502000060B53EC102B51EC100B04F069FF41EC14
:10503000180B53EC182B04F063FF41EC190B4E488E
:105040000621B0EE490AF0EE690A784401F060F9F1
:1050500053EC182B51EC100B04F052FF41EC180BE1
:105060004648B0EE490AF0EE690A0521784401F09D
:105070004FF953EC192B51EC100B04F041FF41ECAC
:10508000100B51EC180B53EC102B002C0EDA04F023
:105090008DFC9DED061B53EC112B04F031FF9DEDB3
:1050A000061B53EC112B05F05FF835E004F07EFC95
:1050B0009DED061B53EC112B04F022FF41EC100B6D
:1050C0002F48784400EBC40090ED001B51EC100B0E
:1050D00053EC112B05F020F99DED061B53EC112B21
:1050E00005F01AF941EC100B2648784400EBC40097
:1050F00090ED001B51EC100B53EC112B05F034F824
:1051000041EC100B002DA2BFBDEC068B02B070BDB0
:1051100051EC100B04F00CFC41EC100B01E700000B
:10512000000010440000F07F182D4454FB21F93F8B
:10513000182D4454FB21F9BF0000DC3F0000203E45
:105140000000F33F00000000000000000000F03FFE
:105150000000E63F000000000000000000000040EA
:105160000080034000000000000000000000F83F45
:10517000000000000000F0BF926B0000486B0000D0
:10518000D26A00008A6A00002DE9F04D2DED040B73
:105190002DED0E8B96B0DDE92550279CDDF890A013
:1051A00025F0004624F00048BAF1000F14BF012199
:1051B000002101EB4502FC4953184A1093422AD3BF
:1051C000002814BF0123002303EB44030B44F749D9
:1051D0008B4220D358EA00019FEDF59B76D0DFF893
:1051E000D8B35D4503D1BAF1000F05D188E0BAF11B
:1051F000000F08BF002100D0012101EB450111F58E
:10520000001F08D8002814BF0121002101EB440130
:1052100011F5001F0BD99DED261B9DED240B16B03B
:10522000BDEC0E8B04B0BDE8F04D01F0B7BA00271D
:10523000002DBCBFE149884521DAE1498845A8BF76
:1052400002271CDAC3451ADCDE4901EB2851142978
:1052500008DDC1F1340220FA02F101FA02F28242C1
:105260000DD108E058B9C1F1140228FA02F101FA8F
:1052700002F2424503D101F00101C1F1020756EAF1
:105280000A0124D1002C22DA002D18BF022F01D0F0
:10529000012F0AD00220FBF78BF916B0BDEC0E8B64
:1052A00004B0BDE8F04D01F057BA0220FBF780F9D9
:1052B00001F052FA51EC100B04F03AFB41EC100BE8
:1052C00016B0BDEC0E8B04B0BDE8F08D18E09FED7C
:1052D000BEAB9FEDBF8B002871D1B848804522D16D
:1052E00005F1804010F5801008BFBAF1000F07D01B
:1052F000B3450ADC002CA8BF9DED260BE0DA0DE0DB
:10530000B0EE490AF0EE690ADAE7002C06DA9DED04
:10531000260B51EC100B04F00BFB6FE0AE48784409
:1053200090ED000BCCE7D8454DD1002C48DA2EB1DA
:1053300086423AD1BAF1000F42D126E0BAF1000F0D
:1053400013D00220FBF734F901F042FA8DED020B85
:105350009DED240B8DED000B10EE900A039961F387
:105360001E0003909DED020BAAE78DED02AB9DEDB3
:10537000240B1AEE901A10EE900A8DED000B61F3DB
:105380001E0003909DED020B9AE78DED028B9DEDC3
:10539000240B18EE901A10EE900A8DED000B61F3BD
:1053A0001E0003909DED020B8AE709DA9DED240BA8
:1053B00051EC190B53EC102B04F0B4FB1EE020E071
:1053C0009DED240B7CE786421BDAB4F1804F0DD0B3
:1053D000A4F10050B0F1FF5013D1002D11DB9DED71
:1053E000240B51EC100B02F031FE07E09DED240B75
:1053F00053EC102B51EC100B00F0C2BC41EC100B25
:105400005EE79DED240B51EC100B01F0FDFBBAF1B2
:10541000000FCDE90E0142D19FED710B46B3A6F10D
:10542000E040B0F17F600CD05E4538D1002D00DA4D
:10543000A7B3022F0CBF01204FF0FF3004F0F9FC9E
:10544000DCE7002D01DD002C0DDA002D01DD002C44
:105450001FDB002D16DA002C14DB012F08BF9FED97
:10546000620B3FF42DAFB0EE4A0AF0EE6A0A27E76E
:10547000022F18BF002D0CD0012F0AD1002DFFF6EE
:105480001FAF06E0002DB8BF002C08DA012F3FF453
:1054900017AFB0EE480AF0EE680A11E71BE00120F2
:1054A00000EBE57050EA070115D0791EB0EE498A8D
:1054B000F0EE698A084308BF9FED4D8B4E480025EA
:1054C000804570DD4D494E48884514DDB0420DDB06
:1054D000002C19DB2FE00120FBF76AF816B0BDECB9
:1054E0000E8B04B0BDE8F04D01F062B9B34502DCAB
:1054F000002C09DC1FE0864202DA002C1BDA03E0F4
:105500005E452BDD002C16DD0220FBF751F801F083
:105510005FF98DED020B53EC1A2B51EC180B04F0D4
:10552000EFFCCDE900010399019861F31E0003909F
:105530009DED020BC4E60220FBF73AF801F058F9A2
:1055400010EE901A18EE900A8DED020B8DED008B87
:1055500061F31E0003909DED020BB1E69DED0E0B75
:1055600053EC192B51EC100B04F0D6FE9FED260BDB
:10557000CDE9080153EC102B9DED080B51EC100BFD
:1055800004F0BEFC9FED221B53EC112B04F0ECFD4C
:105590009DED081B53EC112B04F0B2FC9FED1E1B7C
:1055A00053EC112B3CE08CE0FFFF1F00FFFF0F00CE
:1055B000000000000000F03F0000F03F0000F07F1E
:1055C0000000404301FCFFFF000000000000F07FEE
:1055D00000000000000000007669000000000000EC
:1055E0000000000000000080000000000000F0FF4C
:1055F000000000000000F0BF0000E0410000F043A8
:10560000FFFFEF3F00000000000000000000D03F5F
:10561000555555555555D53F000000000000E03F59
:1056200004F0A2FD9DED080B41EC1A0B53EC102B7E
:1056300051EC100B04F064FC53EC1A2B04F060FCEA
:1056400041EC1A0B9FEDFE0B53EC102B9DED080B5C
:1056500051EC100B04F054FC41EC1B0B9FEDFA0BCA
:1056600051EC1A0B53EC102B04F04AFC41EC1A0BD2
:105670009FEDF70B53EC102B9DED080B51EC100B2D
:1056800004F03EFC53EC1A2B04F046FE41EC1A0BDE
:1056900051EC1B0B53EC1A2B04F088F90690CDE962
:1056A00006519DED060B53EC1B2B51EC100B04F037
:1056B00033FE53EC1A2B04F057FD41EC100B00F0B5
:1056C000A1B90020B6F5801F0EDA9FEDE30B53EC75
:1056D000102B9DED0E0B51EC100B04F011FCCDE9DD
:1056E0000E016FF034000E4600EB2650A0F2FF379B
:1056F000C6F31300DA4940F07F6646F04056884210
:10570000D8BF002408DDD7498142C8BF012403DC8B
:105710000024A6F580167F1CD348784400EBC40013
:105720000F9690ED00CB9DED0E0B53EC1C2B51EC26
:10573000100B04F0F1FD9DED0E0B41EC1B0B53EC37
:105740001C2B51EC100B04F031F941EC100B51EC17
:10575000190B53EC102B04F0E5F941EC1D0B51EC47
:105760001B0B53EC1D2B04F0CBFB41EC1A0BBF4879
:105770008DED10AB7844109590ED000B4FF000507C
:1057800040EA660000EB84408DED080B00F5002038
:1057900009909DED080B53EC1C2B51EC100B04F001
:1057A000BBFD9DED0E1B53EC112B04F0DDFC41EC19
:1057B000100B53EC102B9DED100B51EC100B04F063
:1057C0009FFB9DED080B41EC1C0B53EC102B9DED4A
:1057D000100B51EC100B04F093FB53EC1B2B04F05B
:1057E000C3FC53EC1C2B04F097FD53EC1D2B04F071
:1057F00087FB41EC1C0B53EC1A2B51EC1A0B04F0F9
:105800007FFB41EC1B0B9A480621B0EE4B0AF0EEF1
:105810006B0A784400F07CFDB0EE401AF0EE601A9E
:10582000B0EE41DAF0EE61DA53EC1B2B51EC1B0BBE
:1058300004F066FB53EC1D2B04F062FB9DED100B96
:1058400041EC1B0B53EC1A2B51EC100B04F0AEF88F
:1058500053EC1C2B04F054FB53EC1B2B04F0A6F868
:105860009DED100B41EC1B0B53EC102B51EC100B6E
:1058700004F046FB41EC1D0B9FED7FEB53EC1E2B20
:1058800004F094F853EC1B2B04F090F80890CDE949
:1058900008519DED080B53EC1E2B51EC100B04F03E
:1058A0003BFD53EC1D2B04F037FD53EC1B2B04F098
:1058B0005BFC9DED080B41EC1D0B53EC102B9DED9B
:1058C000100B51EC100B04F01BFB41EC1B0B53ECC9
:1058D0001A2B51EC1D0B04F013FB9DED080B41EC52
:1058E0001A0B53EC102B51EC1C0B04F009FB53EC7E
:1058F0001A2B04F05BF841EC1A0B51EC1B0B53EC28
:105900001A2B04F053F80C90CDE90C519DED0C0BC3
:1059100053EC1B2B51EC100B04F0FEFC53EC1A2B38
:1059200004F022FC41EC1B0B9FED550B53EC102BAC
:105930009DED0C0B51EC100B04F0E2FA41EC1A0B4C
:105940009FED510B51EC1B0B53EC102B04F0D8FACC
:1059500041EC1B0B9FED4E0B53EC102B9DED0C0BF4
:1059600051EC100B04F0CCFA53EC1B2B04F01EF896
:1059700041EC100B4848784400EBC40090ED001B4C
:1059800051EC100B53EC112B04F010F841EC1B0BF5
:10599000384604F04EFACDE9080153EC1B2B51ECCC
:1059A0001A0B04F003F841EC100B3C48784400EB70
:1059B000C40090ED00CB51EC100B53EC1C2B03F00A
:1059C000F5FF9DED081B53EC112B03F0EFFF069044
:1059D000CDE906519DED080B53EC102B9DED060B08
:1059E00051EC100B04F098FC53EC1C2B04F094FCCD
:1059F00053EC1A2B04F090FC53EC1B2B04F0B4FB7B
:105A000041EC100B9DED261B53EC102B8DED001B74
:105A100000959DED260B51EC100B04F071FA9DEDF5
:105A2000000B41EC1A0B53EC102B9DED260B51ECA7
:105A3000100B04F071FC9DED061B53EC112B2FE0B5
:105A4000000000604715F73FFE822B654715F73FC2
:105A500044DF5DF80BAE543E000000000000404300
:105A60008E9803007AB60B00F264000020650000F7
:105A70002A64000000000000000000000000084050
:105A8000000000E009C7EE3FFD033ADC09C7EE3F26
:105A9000F5015B14E02F3EBEB662000070620000AC
:105AA00004F02EFA53EC1A2B03F080FF9DED060B49
:105AB00041EC1A0B53EC102B9DED000B51EC100B2D
:105AC00004F01EFACDE90C019DED0C0B51EC1A0B04
:105AD00053EC102B03F06AFFCDE902010C46AA49F2
